{
  "contractName": "PowerMock",
  "abi": [
    {
      "constant": true,
      "inputs": [],
      "name": "version",
      "outputs": [
        {
          "name": "",
          "type": "string"
        }
      ],
      "payable": false,
      "stateMutability": "view",
      "type": "function"
    },
    {
      "inputs": [],
      "payable": false,
      "stateMutability": "nonpayable",
      "type": "constructor"
    },
    {
      "constant": true,
      "inputs": [
        {
          "name": "_baseN",
          "type": "uint256"
        },
        {
          "name": "_baseD",
          "type": "uint256"
        },
        {
          "name": "_expN",
          "type": "uint32"
        },
        {
          "name": "_expD",
          "type": "uint32"
        }
      ],
      "name": "powerTest",
      "outputs": [
        {
          "name": "",
          "type": "uint256"
        },
        {
          "name": "",
          "type": "uint8"
        }
      ],
      "payable": false,
      "stateMutability": "view",
      "type": "function"
    },
    {
      "constant": true,
      "inputs": [
        {
          "name": "_numerator",
          "type": "uint256"
        },
        {
          "name": "_denominator",
          "type": "uint256"
        }
      ],
      "name": "lnTest",
      "outputs": [
        {
          "name": "",
          "type": "uint256"
        }
      ],
      "payable": false,
      "stateMutability": "view",
      "type": "function"
    },
    {
      "constant": true,
      "inputs": [
        {
          "name": "_x",
          "type": "uint256"
        }
      ],
      "name": "findPositionInMaxExpArrayTest",
      "outputs": [
        {
          "name": "",
          "type": "uint8"
        }
      ],
      "payable": false,
      "stateMutability": "view",
      "type": "function"
    },
    {
      "constant": true,
      "inputs": [
        {
          "name": "_x",
          "type": "uint256"
        },
        {
          "name": "_precision",
          "type": "uint8"
        }
      ],
      "name": "fixedExpTest",
      "outputs": [
        {
          "name": "",
          "type": "uint256"
        }
      ],
      "payable": false,
      "stateMutability": "view",
      "type": "function"
    },
    {
      "constant": true,
      "inputs": [
        {
          "name": "_n",
          "type": "uint256"
        }
      ],
      "name": "floorLog2Test",
      "outputs": [
        {
          "name": "",
          "type": "uint8"
        }
      ],
      "payable": false,
      "stateMutability": "view",
      "type": "function"
    }
  ],
  "bytecode": "0x60806040526040805190810160405280600381526020017f302e330000000000000000000000000000000000000000000000000000000000815250600090805190602001906200005192919062000f56565b503480156200005f57600080fd5b50701c35fedd14ffffffffffffffffffffffff600160206080811015156200008357fe5b0181905550701b0ce43b323fffffffffffffffffffffff60016021608081101515620000ab57fe5b01819055507019f0028ec1ffffffffffffffffffffffff60016022608081101515620000d357fe5b01819055507018ded91f0e7fffffffffffffffffffffff60016023608081101515620000fb57fe5b01819055507017d8ec7f0417ffffffffffffffffffffff600160246080811015156200012357fe5b01819055507016ddc6556cdbffffffffffffffffffffff600160256080811015156200014b57fe5b01819055507015ecf52776a1ffffffffffffffffffffff600160266080811015156200017357fe5b01819055507015060c256cb2ffffffffffffffffffffff600160276080811015156200019b57fe5b0181905550701428a2f98d72ffffffffffffffffffffff60016028608081101515620001c357fe5b01819055507013545598e5c23fffffffffffffffffffff60016029608081101515620001eb57fe5b0181905550701288c4161ce1dfffffffffffffffffffff6001602a6080811015156200021357fe5b01819055507011c592761c666fffffffffffffffffffff6001602b6080811015156200023b57fe5b018190555070110a688680a757ffffffffffffffffffff6001602c6080811015156200026357fe5b0181905550701056f1b5bedf77ffffffffffffffffffff6001602d6080811015156200028b57fe5b0181905550700faadceceeff8bffffffffffffffffffff6001602e608081101515620002b357fe5b0181905550700f05dc6b27edadffffffffffffffffffff6001602f608081101515620002db57fe5b0181905550700e67a5a25da4107fffffffffffffffffff600160306080811015156200030357fe5b0181905550700dcff115b14eedffffffffffffffffffff600160316080811015156200032b57fe5b0181905550700d3e7a392431239fffffffffffffffffff600160326080811015156200035357fe5b0181905550700cb2ff529eb71e4fffffffffffffffffff600160336080811015156200037b57fe5b0181905550700c2d415c3db974afffffffffffffffffff60016034608081101515620003a357fe5b0181905550700bad03e7d883f69bffffffffffffffffff60016035608081101515620003cb57fe5b0181905550700b320d03b2c343d5ffffffffffffffffff60016036608081101515620003f357fe5b0181905550700abc25204e02828dffffffffffffffffff600160376080811015156200041b57fe5b0181905550700a4b16f74ee4bb207fffffffffffffffff600160386080811015156200044357fe5b01819055507009deaf736ac1f569ffffffffffffffffff600160396080811015156200046b57fe5b0181905550700976bd9952c7aa957fffffffffffffffff6001603a6080811015156200049357fe5b01819055507009131271922eaa606fffffffffffffffff6001603b608081101515620004bb57fe5b01819055507008b380f3558668c46fffffffffffffffff6001603c608081101515620004e357fe5b0181905550700857ddf0117efa215bffffffffffffffff6001603d6080811015156200050b57fe5b01819055507007ffffffffffffffffffffffffffffffff6001603e6080811015156200053357fe5b01819055507007abbf6f6abb9d087fffffffffffffffff6001603f6080811015156200055b57fe5b018190555070075af62cbac95f7dfa7fffffffffffffff600160406080811015156200058357fe5b018190555070070d7fb7452e187ac13fffffffffffffff60016041608081101515620005ab57fe5b01819055507006c3390ecc8af379295fffffffffffffff60016042608081101515620005d357fe5b018190555070067c00a3b07ffc01fd6fffffffffffffff60016043608081101515620005fb57fe5b0181905550700637b647c39cbb9d3d27ffffffffffffff600160446080811015156200062357fe5b01819055507005f63b1fc104dbd39587ffffffffffffff600160456080811015156200064b57fe5b01819055507005b771955b36e12f7235ffffffffffffff600160466080811015156200067357fe5b018190555070057b3d49dda84556d6f6ffffffffffffff600160476080811015156200069b57fe5b018190555070054183095b2c8ececf30ffffffffffffff60016048608081101515620006c357fe5b018190555070050a28be635ca2b888f77fffffffffffff60016049608081101515620006eb57fe5b01819055507004d5156639708c9db33c3fffffffffffff6001604a6080811015156200071357fe5b01819055507004a23105873875bd52dfdfffffffffffff6001604b6080811015156200073b57fe5b0181905550700471649d87199aa990756fffffffffffff6001604c6080811015156200076357fe5b01819055507004429a21a029d4c1457cfbffffffffffff6001604d6080811015156200078b57fe5b0181905550700415bc6d6fb7dd71af2cb3ffffffffffff6001604e608081101515620007b357fe5b01819055507003eab73b3bbfe282243ce1ffffffffffff6001604f608081101515620007db57fe5b01819055507003c1771ac9fb6b4c18e229ffffffffffff600160506080811015156200080357fe5b0181905550700399e96897690418f785257fffffffffff600160516080811015156200082b57fe5b0181905550700373fc456c53bb779bf0ea9fffffffffff600160526080811015156200085357fe5b018190555070034f9e8e490c48e67e6ab8bfffffffffff600160536080811015156200087b57fe5b018190555070032cbfd4a7adc790560b3337ffffffffff60016054608081101515620008a357fe5b018190555070030b50570f6e5d2acca94613ffffffffff60016055608081101515620008cb57fe5b01819055507002eb40f9f620fda6b56c2861ffffffffff60016056608081101515620008f357fe5b01819055507002cc8340ecb0d0f520a6af58ffffffffff600160576080811015156200091b57fe5b01819055507002af09481380a0a35cf1ba02ffffffffff600160586080811015156200094357fe5b0181905550700292c5bdd3b92ec810287b1b3fffffffff600160596080811015156200096b57fe5b0181905550700277abdcdab07d5a77ac6d6b9fffffffff6001605a6080811015156200099357fe5b018190555070025daf6654b1eaa55fd64df5efffffffff6001605b608081101515620009bb57fe5b0181905550700244c49c648baa98192dce88b7ffffffff6001605c608081101515620009e357fe5b018190555070022ce03cd5619a311b2471268bffffffff6001605d60808110151562000a0b57fe5b0181905550700215f77c045fbe885654a44a0fffffffff6001605e60808110151562000a3357fe5b01819055507001ffffffffffffffffffffffffffffffff6001605f60808110151562000a5b57fe5b01819055507001eaefdbdaaee7421fc4d3ede5ffffffff6001606060808110151562000a8357fe5b01819055507001d6bd8b2eb257df7e8ca57b09bfffffff6001606160808110151562000aab57fe5b01819055507001c35fedd14b861eb0443f7f133fffffff6001606260808110151562000ad357fe5b01819055507001b0ce43b322bcde4a56e8ada5afffffff6001606360808110151562000afb57fe5b018190555070019f0028ec1fff007f5a195a39dfffffff6001606460808110151562000b2357fe5b018190555070018ded91f0e72ee74f49b15ba527ffffff6001606560808110151562000b4b57fe5b018190555070017d8ec7f04136f4e5615fd41a63ffffff6001606660808110151562000b7357fe5b018190555070016ddc6556cdb84bdc8d12d22e6fffffff6001606760808110151562000b9b57fe5b018190555070015ecf52776a1155b5bd8395814f7fffff6001606860808110151562000bc357fe5b018190555070015060c256cb23b3b3cc3754cf40ffffff6001606960808110151562000beb57fe5b01819055507001428a2f98d728ae223ddab715be3fffff6001606a60808110151562000c1357fe5b018190555070013545598e5c23276ccf0ede68034fffff6001606b60808110151562000c3b57fe5b01819055507001288c4161ce1d6f54b7f61081194fffff6001606c60808110151562000c6357fe5b018190555070011c592761c666aa641d5a01a40f17ffff6001606d60808110151562000c8b57fe5b0181905550700110a688680a7530515f3e6e6cfdcdffff6001606e60808110151562000cb357fe5b01819055507001056f1b5bedf75c6bcb2ce8aed428ffff6001606f60808110151562000cdb57fe5b01819055506ffaadceceeff8a0890f3875f008277fff6001607060808110151562000d0257fe5b01819055506ff05dc6b27edad306388a600f6ba0bfff6001607160808110151562000d2957fe5b01819055506fe67a5a25da41063de1495d5b18cdbfff6001607260808110151562000d5057fe5b01819055506fdcff115b14eedde6fc3aa5353f2e4fff6001607360808110151562000d7757fe5b01819055506fd3e7a3924312399f9aae2e0f868f8fff6001607460808110151562000d9e57fe5b01819055506fcb2ff529eb71e41582cccd5a1ee26fff6001607560808110151562000dc557fe5b01819055506fc2d415c3db974ab32a51840c0b67edff6001607660808110151562000dec57fe5b01819055506fbad03e7d883f69ad5b0a186184e06bff6001607760808110151562000e1357fe5b01819055506fb320d03b2c343d4829abd6075f0cc5ff6001607860808110151562000e3a57fe5b01819055506fabc25204e02828d73c6e80bcdb1a95bf6001607960808110151562000e6157fe5b01819055506fa4b16f74ee4bb2040a1ec6c15fbbf2df6001607a60808110151562000e8857fe5b01819055506f9deaf736ac1f569deb1b5ae3f36c130f6001607b60808110151562000eaf57fe5b01819055506f976bd9952c7aa957f5937d790ef650376001607c60808110151562000ed657fe5b01819055506f9131271922eaa6064b73a22d0bd4f2bf6001607d60808110151562000efd57fe5b01819055506f8b380f3558668c46c91c49a2f8e967b96001607e60808110151562000f2457fe5b01819055506f857ddf0117efa215952912839f6473e66001607f60808110151562000f4b57fe5b018190555062001005565b828054600181600116156101000203166002900490600052602060002090601f016020900481019282601f1062000f9957805160ff191683800117855562000fca565b8280016001018555821562000fca579182015b8281111562000fc957825182559160200191906001019062000fac565b5b50905062000fd9919062000fdd565b5090565b6200100291905b8082111562000ffe57600081600090555060010162000fe4565b5090565b90565b610b1880620010156000396000f300608060405260043610610078576000357c0100000000000000000000000000000000000000000000000000000000900463ffffffff16806354fd4d501461007d5780638c5ce82a1461010d578063a25a34b114610185578063b3ed2081146101cc578063ce782e081461021a578063dc06d8f814610261575b600080fd5b34801561008957600080fd5b506100926102ac565b6040518080602001828103825283818151815260200191508051906020019080838360005b838110156100d25780820151818401526020810190506100b7565b50505050905090810190601f1680156100ff5780820380516001836020036101000a031916815260200191505b509250505060405180910390f35b34801561011957600080fd5b506101626004803603810190808035906020019092919080359060200190929190803563ffffffff169060200190929190803563ffffffff16906020019092919050505061034a565b604051808381526020018260ff1660ff1681526020019250505060405180910390f35b34801561019157600080fd5b506101b060048036038101908080359060200190929190505050610366565b604051808260ff1660ff16815260200191505060405180910390f35b3480156101d857600080fd5b5061020460048036038101908080359060200190929190803560ff169060200190929190505050610378565b6040518082815260200191505060405180910390f35b34801561022657600080fd5b506102456004803603810190808035906020019092919050505061038c565b604051808260ff1660ff16815260200191505060405180910390f35b34801561026d57600080fd5b50610296600480360381019080803590602001909291908035906020019092919050505061039e565b6040518082815260200191505060405180910390f35b60008054600181600116156101000203166002900480601f0160208091040260200160405190810160405280929190818152602001828054600181600116156101000203166002900480156103425780601f1061031757610100808354040283529160200191610342565b820191906000526020600020905b81548152906001019060200180831161032557829003601f168201915b505050505081565b600080610359868686866103b2565b9150915094509492505050565b60006103718261040f565b9050919050565b600061038483836104cf565b905092915050565b6000610397826108f3565b9050919050565b60006103aa8383610985565b905092915050565b6000806000808463ffffffff168663ffffffff166103d08a8a610985565b028115156103da57fe5b0491506103e68261040f565b90506103ff81607f0360ff16839060020a9004826104cf565b8193509350505094509492505050565b60008060008060209250607f91505b8160ff166001840160ff16101561047057600282840160ff1681151561044057fe5b0490508460018260ff1660808110151561045657fe5b01541015156104675780925061046b565b8091505b61041e565b8460018360ff1660808110151561048357fe5b0154101515610494578193506104c7565b8460018460ff166080811015156104a757fe5b01541015156104b8578293506104c7565b600015156104c257fe5b600093505b505050919050565b6000806000849150600090508360ff168583029060020a900491506f03442c4e6074a82f1797f72ac00000008202810190508360ff168583029060020a900491506f0116b96f757c380fb287fd0e400000008202810190508360ff168583029060020a900491506e45ae5bdd5f0e03eca1ff43900000008202810190508360ff168583029060020a900491506e0defabf91302cd95b9ffda500000008202810190508360ff168583029060020a900491506e02529ca9832b22439efff9b80000008202810190508360ff168583029060020a900491506d54f1cf12bd04e516b6da880000008202810190508360ff168583029060020a900491506d0a9e39e257a09ca2d6db510000008202810190508360ff168583029060020a900491506d012e066e7b839fa050c3090000008202810190508360ff168583029060020a900491506c1e33d7d926c329a1ad1a8000008202810190508360ff168583029060020a900491506c02bee513bdb4a6b19b5f8000008202810190508360ff168583029060020a900491506b3a9316fa79b88eccf2a000008202810190508360ff168583029060020a900491506b048177ebe1fa8123752000008202810190508360ff168583029060020a900491506a5263fe90242dcbacf000008202810190508360ff168583029060020a900491506a057e22099c030d941000008202810190508360ff168583029060020a900491506957e22099c030d94100008202810190508360ff168583029060020a9004915069052b6b545699763100008202810190508360ff168583029060020a90049150684985f67696bf7480008202810190508360ff168583029060020a900491506803dea12ea99e4980008202810190508360ff168583029060020a900491506731880f2214b6e0008202810190508360ff168583029060020a9004915067025bcff56eb360008202810190508360ff168583029060020a90049150661b722e10ab10008202810190508360ff168583029060020a900491506601317c700770008202810190508360ff168583029060020a90049150650cba84aafa008202810190508360ff168583029060020a900491506482573a0a008202810190508360ff168583029060020a900491506405035ad9008202810190508360ff168583029060020a90049150632f881b008202810190508360ff168583029060020a900491506301b293408202810190508360ff168583029060020a90049150620efc408202810190508360ff168583029060020a90049150617fe08202810190508360ff168583029060020a900491506104208202810190508360ff168583029060020a9004915060218202810190508360ff168583029060020a9004915060018202810190508360ff1660019060020a02856f0688589cc0e9505e2f2fee5580000000838115156108e657fe5b0401019250505092915050565b6000806000806000925084915061010082101561092f575b600182111561092a576001829060020a9004915060018301925061090b565b61097a565b608090505b60008160ff161115610979578060ff1660019060020a0282101515610966578060ff16829060020a9004915080831792505b60018160ff169060020a90049050610934565b5b829350505050919050565b60008060008060007001ffffffffffffffffffffffffffffffff87111515156109aa57fe5b60009350856f8000000000000000000000000000000088028115156109cb57fe5b04925070010000000000000000000000000000000083101515610a3457610a0c6f8000000000000000000000000000000084811515610a0657fe5b046108f3565b91508160ff16839060020a900492506f800000000000000000000000000000008260ff160293505b6f80000000000000000000000000000000831115610ac257607f90505b60008160ff161115610ac1576f80000000000000000000000000000000838402811515610a7a57fe5b04925070010000000000000000000000000000000083101515610ab5576001839060020a900492506001810360ff1660019060020a02840193505b80600190039050610a51565b5b607a60ff166f02c5c85fdf473de6af278ece600fcbda85029060020a9004945050505050929150505600a165627a7a723058208a66c586d6815a033869fecc5a9229f1fb63a7dc7f2b2c487e901fa48c0282ee0029",
  "source": "pragma solidity ^0.4.11;\nimport \"../Power.sol\";\n\n/*\n    BancorFormula test helper that exposes some BancorFormula functions\n*/\ncontract PowerMock is Power {\n  constructor()  public {\n  }\n\n  function powerTest(uint256 _baseN, uint256 _baseD, uint32 _expN, uint32 _expD) public constant returns (uint256, uint8) {\n    return super.power(_baseN, _baseD, _expN, _expD);\n  }\n\n  function lnTest(uint256 _numerator, uint256 _denominator) public constant returns (uint256) {\n    return super.ln(_numerator, _denominator);\n  }\n\n  function findPositionInMaxExpArrayTest(uint256 _x) public constant returns (uint8) {\n    return super.findPositionInMaxExpArray(_x);\n  }\n\n  function fixedExpTest(uint256 _x, uint8 _precision) public constant returns (uint256) {\n    return super.fixedExp(_x, _precision);\n  }\n\n  function floorLog2Test(uint256 _n) public constant returns (uint8) {\n    return super.floorLog2(_n);\n  }\n}\n",
  "sourcePath": "/Users/dougking/git/EthSfHackathon/tcr/tcr_factory/contracts/mocks/PowerMock.sol",
  "compiler": {
    "name": "solc",
    "version": "0.4.24+commit.e67f0147.Emscripten.clang"
  },
  "schemaVersion": "2.0.1",
  "updatedAt": "2018-10-07T01:34:46.744Z"
}