{
  "contractName": "TCRFactory",
  "abi": [
    {
      "constant": false,
      "inputs": [
        {
          "name": "_spender",
          "type": "address"
        },
        {
          "name": "_value",
          "type": "uint256"
        }
      ],
      "name": "approve",
      "outputs": [
        {
          "name": "",
          "type": "bool"
        }
      ],
      "payable": false,
      "stateMutability": "nonpayable",
      "type": "function"
    },
    {
      "constant": true,
      "inputs": [],
      "name": "totalSupply",
      "outputs": [
        {
          "name": "",
          "type": "uint256"
        }
      ],
      "payable": false,
      "stateMutability": "view",
      "type": "function"
    },
    {
      "constant": false,
      "inputs": [
        {
          "name": "_from",
          "type": "address"
        },
        {
          "name": "_to",
          "type": "address"
        },
        {
          "name": "_value",
          "type": "uint256"
        }
      ],
      "name": "transferFrom",
      "outputs": [
        {
          "name": "",
          "type": "bool"
        }
      ],
      "payable": false,
      "stateMutability": "nonpayable",
      "type": "function"
    },
    {
      "constant": true,
      "inputs": [
        {
          "name": "_supply",
          "type": "uint256"
        },
        {
          "name": "_connectorBalance",
          "type": "uint256"
        },
        {
          "name": "_connectorWeight",
          "type": "uint32"
        },
        {
          "name": "_depositAmount",
          "type": "uint256"
        }
      ],
      "name": "calculatePurchaseReturn",
      "outputs": [
        {
          "name": "",
          "type": "uint256"
        }
      ],
      "payable": false,
      "stateMutability": "view",
      "type": "function"
    },
    {
      "constant": true,
      "inputs": [
        {
          "name": "_supply",
          "type": "uint256"
        },
        {
          "name": "_connectorBalance",
          "type": "uint256"
        },
        {
          "name": "_connectorWeight",
          "type": "uint32"
        },
        {
          "name": "_sellAmount",
          "type": "uint256"
        }
      ],
      "name": "calculateSaleReturn",
      "outputs": [
        {
          "name": "",
          "type": "uint256"
        }
      ],
      "payable": false,
      "stateMutability": "view",
      "type": "function"
    },
    {
      "constant": true,
      "inputs": [],
      "name": "version",
      "outputs": [
        {
          "name": "",
          "type": "string"
        }
      ],
      "payable": false,
      "stateMutability": "view",
      "type": "function"
    },
    {
      "constant": false,
      "inputs": [
        {
          "name": "_spender",
          "type": "address"
        },
        {
          "name": "_subtractedValue",
          "type": "uint256"
        }
      ],
      "name": "decreaseApproval",
      "outputs": [
        {
          "name": "",
          "type": "bool"
        }
      ],
      "payable": false,
      "stateMutability": "nonpayable",
      "type": "function"
    },
    {
      "constant": true,
      "inputs": [
        {
          "name": "_owner",
          "type": "address"
        }
      ],
      "name": "balanceOf",
      "outputs": [
        {
          "name": "",
          "type": "uint256"
        }
      ],
      "payable": false,
      "stateMutability": "view",
      "type": "function"
    },
    {
      "constant": false,
      "inputs": [],
      "name": "renounceOwnership",
      "outputs": [],
      "payable": false,
      "stateMutability": "nonpayable",
      "type": "function"
    },
    {
      "constant": true,
      "inputs": [],
      "name": "owner",
      "outputs": [
        {
          "name": "",
          "type": "address"
        }
      ],
      "payable": false,
      "stateMutability": "view",
      "type": "function"
    },
    {
      "constant": false,
      "inputs": [
        {
          "name": "_to",
          "type": "address"
        },
        {
          "name": "_value",
          "type": "uint256"
        }
      ],
      "name": "transfer",
      "outputs": [
        {
          "name": "",
          "type": "bool"
        }
      ],
      "payable": false,
      "stateMutability": "nonpayable",
      "type": "function"
    },
    {
      "constant": false,
      "inputs": [
        {
          "name": "_spender",
          "type": "address"
        },
        {
          "name": "_addedValue",
          "type": "uint256"
        }
      ],
      "name": "increaseApproval",
      "outputs": [
        {
          "name": "",
          "type": "bool"
        }
      ],
      "payable": false,
      "stateMutability": "nonpayable",
      "type": "function"
    },
    {
      "constant": true,
      "inputs": [
        {
          "name": "_owner",
          "type": "address"
        },
        {
          "name": "_spender",
          "type": "address"
        }
      ],
      "name": "allowance",
      "outputs": [
        {
          "name": "",
          "type": "uint256"
        }
      ],
      "payable": false,
      "stateMutability": "view",
      "type": "function"
    },
    {
      "constant": false,
      "inputs": [
        {
          "name": "_newOwner",
          "type": "address"
        }
      ],
      "name": "transferOwnership",
      "outputs": [],
      "payable": false,
      "stateMutability": "nonpayable",
      "type": "function"
    },
    {
      "payable": true,
      "stateMutability": "payable",
      "type": "fallback"
    },
    {
      "anonymous": false,
      "inputs": [
        {
          "indexed": false,
          "name": "hashId",
          "type": "bytes32"
        },
        {
          "indexed": false,
          "name": "amountMinted",
          "type": "uint256"
        },
        {
          "indexed": false,
          "name": "totalCost",
          "type": "uint256"
        }
      ],
      "name": "LogMint",
      "type": "event"
    },
    {
      "anonymous": false,
      "inputs": [
        {
          "indexed": false,
          "name": "hashId",
          "type": "bytes32"
        },
        {
          "indexed": false,
          "name": "amountWithdrawn",
          "type": "uint256"
        },
        {
          "indexed": false,
          "name": "reward",
          "type": "uint256"
        }
      ],
      "name": "LogWithdraw",
      "type": "event"
    },
    {
      "anonymous": false,
      "inputs": [
        {
          "indexed": false,
          "name": "hashId",
          "type": "bytes32"
        },
        {
          "indexed": false,
          "name": "logString",
          "type": "string"
        },
        {
          "indexed": false,
          "name": "value",
          "type": "uint256"
        }
      ],
      "name": "LogBondingCurve",
      "type": "event"
    },
    {
      "anonymous": false,
      "inputs": [
        {
          "indexed": false,
          "name": "amountMinted",
          "type": "uint256"
        },
        {
          "indexed": false,
          "name": "totalCost",
          "type": "uint256"
        }
      ],
      "name": "LogMint",
      "type": "event"
    },
    {
      "anonymous": false,
      "inputs": [
        {
          "indexed": false,
          "name": "amountWithdrawn",
          "type": "uint256"
        },
        {
          "indexed": false,
          "name": "reward",
          "type": "uint256"
        }
      ],
      "name": "LogWithdraw",
      "type": "event"
    },
    {
      "anonymous": false,
      "inputs": [
        {
          "indexed": false,
          "name": "logString",
          "type": "string"
        },
        {
          "indexed": false,
          "name": "value",
          "type": "uint256"
        }
      ],
      "name": "LogBondingCurve",
      "type": "event"
    },
    {
      "anonymous": false,
      "inputs": [
        {
          "indexed": false,
          "name": "hashId",
          "type": "bytes32"
        },
        {
          "indexed": false,
          "name": "content",
          "type": "bytes32"
        },
        {
          "indexed": false,
          "name": "ratio",
          "type": "uint32"
        },
        {
          "indexed": false,
          "name": "erc20",
          "type": "address"
        },
        {
          "indexed": false,
          "name": "startingBalance",
          "type": "uint32"
        }
      ],
      "name": "TcrCreated",
      "type": "event"
    },
    {
      "anonymous": false,
      "inputs": [
        {
          "indexed": true,
          "name": "previousOwner",
          "type": "address"
        }
      ],
      "name": "OwnershipRenounced",
      "type": "event"
    },
    {
      "anonymous": false,
      "inputs": [
        {
          "indexed": true,
          "name": "previousOwner",
          "type": "address"
        },
        {
          "indexed": true,
          "name": "newOwner",
          "type": "address"
        }
      ],
      "name": "OwnershipTransferred",
      "type": "event"
    },
    {
      "anonymous": false,
      "inputs": [
        {
          "indexed": true,
          "name": "owner",
          "type": "address"
        },
        {
          "indexed": true,
          "name": "spender",
          "type": "address"
        },
        {
          "indexed": false,
          "name": "value",
          "type": "uint256"
        }
      ],
      "name": "Approval",
      "type": "event"
    },
    {
      "anonymous": false,
      "inputs": [
        {
          "indexed": true,
          "name": "from",
          "type": "address"
        },
        {
          "indexed": true,
          "name": "to",
          "type": "address"
        },
        {
          "indexed": false,
          "name": "value",
          "type": "uint256"
        }
      ],
      "name": "Transfer",
      "type": "event"
    },
    {
      "constant": false,
      "inputs": [
        {
          "name": "content",
          "type": "bytes32"
        },
        {
          "name": "ratio",
          "type": "uint32"
        },
        {
          "name": "erc20",
          "type": "address"
        },
        {
          "name": "startingBalance",
          "type": "uint32"
        }
      ],
      "name": "createTCR",
      "outputs": [],
      "payable": false,
      "stateMutability": "nonpayable",
      "type": "function"
    },
    {
      "constant": false,
      "inputs": [
        {
          "name": "hashId",
          "type": "bytes32"
        },
        {
          "name": "ercBuyAmount",
          "type": "uint256"
        }
      ],
      "name": "buy",
      "outputs": [
        {
          "name": "",
          "type": "bool"
        }
      ],
      "payable": false,
      "stateMutability": "nonpayable",
      "type": "function"
    },
    {
      "constant": false,
      "inputs": [
        {
          "name": "hashId",
          "type": "bytes32"
        },
        {
          "name": "sellSharesAmount",
          "type": "uint256"
        }
      ],
      "name": "sell",
      "outputs": [
        {
          "name": "",
          "type": "bool"
        }
      ],
      "payable": false,
      "stateMutability": "nonpayable",
      "type": "function"
    }
  ],
  "bytecode": "0x60806040526040805190810160405280600381526020017f302e330000000000000000000000000000000000000000000000000000000000815250600390805190602001906200005192919062000fd7565b506040805190810160405280600381526020017f302e330000000000000000000000000000000000000000000000000000000000815250608490805190602001906200009f92919062000fd7565b50701c35fedd14ffffffffffffffffffffffff60046020608081101515620000c357fe5b0181905550701b0ce43b323fffffffffffffffffffffff60046021608081101515620000eb57fe5b01819055507019f0028ec1ffffffffffffffffffffffff600460226080811015156200011357fe5b01819055507018ded91f0e7fffffffffffffffffffffff600460236080811015156200013b57fe5b01819055507017d8ec7f0417ffffffffffffffffffffff600460246080811015156200016357fe5b01819055507016ddc6556cdbffffffffffffffffffffff600460256080811015156200018b57fe5b01819055507015ecf52776a1ffffffffffffffffffffff60046026608081101515620001b357fe5b01819055507015060c256cb2ffffffffffffffffffffff60046027608081101515620001db57fe5b0181905550701428a2f98d72ffffffffffffffffffffff600460286080811015156200020357fe5b01819055507013545598e5c23fffffffffffffffffffff600460296080811015156200022b57fe5b0181905550701288c4161ce1dfffffffffffffffffffff6004602a6080811015156200025357fe5b01819055507011c592761c666fffffffffffffffffffff6004602b6080811015156200027b57fe5b018190555070110a688680a757ffffffffffffffffffff6004602c608081101515620002a357fe5b0181905550701056f1b5bedf77ffffffffffffffffffff6004602d608081101515620002cb57fe5b0181905550700faadceceeff8bffffffffffffffffffff6004602e608081101515620002f357fe5b0181905550700f05dc6b27edadffffffffffffffffffff6004602f6080811015156200031b57fe5b0181905550700e67a5a25da4107fffffffffffffffffff600460306080811015156200034357fe5b0181905550700dcff115b14eedffffffffffffffffffff600460316080811015156200036b57fe5b0181905550700d3e7a392431239fffffffffffffffffff600460326080811015156200039357fe5b0181905550700cb2ff529eb71e4fffffffffffffffffff60046033608081101515620003bb57fe5b0181905550700c2d415c3db974afffffffffffffffffff60046034608081101515620003e357fe5b0181905550700bad03e7d883f69bffffffffffffffffff600460356080811015156200040b57fe5b0181905550700b320d03b2c343d5ffffffffffffffffff600460366080811015156200043357fe5b0181905550700abc25204e02828dffffffffffffffffff600460376080811015156200045b57fe5b0181905550700a4b16f74ee4bb207fffffffffffffffff600460386080811015156200048357fe5b01819055507009deaf736ac1f569ffffffffffffffffff60046039608081101515620004ab57fe5b0181905550700976bd9952c7aa957fffffffffffffffff6004603a608081101515620004d357fe5b01819055507009131271922eaa606fffffffffffffffff6004603b608081101515620004fb57fe5b01819055507008b380f3558668c46fffffffffffffffff6004603c6080811015156200052357fe5b0181905550700857ddf0117efa215bffffffffffffffff6004603d6080811015156200054b57fe5b01819055507007ffffffffffffffffffffffffffffffff6004603e6080811015156200057357fe5b01819055507007abbf6f6abb9d087fffffffffffffffff6004603f6080811015156200059b57fe5b018190555070075af62cbac95f7dfa7fffffffffffffff60046040608081101515620005c357fe5b018190555070070d7fb7452e187ac13fffffffffffffff60046041608081101515620005eb57fe5b01819055507006c3390ecc8af379295fffffffffffffff600460426080811015156200061357fe5b018190555070067c00a3b07ffc01fd6fffffffffffffff600460436080811015156200063b57fe5b0181905550700637b647c39cbb9d3d27ffffffffffffff600460446080811015156200066357fe5b01819055507005f63b1fc104dbd39587ffffffffffffff600460456080811015156200068b57fe5b01819055507005b771955b36e12f7235ffffffffffffff60046046608081101515620006b357fe5b018190555070057b3d49dda84556d6f6ffffffffffffff60046047608081101515620006db57fe5b018190555070054183095b2c8ececf30ffffffffffffff600460486080811015156200070357fe5b018190555070050a28be635ca2b888f77fffffffffffff600460496080811015156200072b57fe5b01819055507004d5156639708c9db33c3fffffffffffff6004604a6080811015156200075357fe5b01819055507004a23105873875bd52dfdfffffffffffff6004604b6080811015156200077b57fe5b0181905550700471649d87199aa990756fffffffffffff6004604c608081101515620007a357fe5b01819055507004429a21a029d4c1457cfbffffffffffff6004604d608081101515620007cb57fe5b0181905550700415bc6d6fb7dd71af2cb3ffffffffffff6004604e608081101515620007f357fe5b01819055507003eab73b3bbfe282243ce1ffffffffffff6004604f6080811015156200081b57fe5b01819055507003c1771ac9fb6b4c18e229ffffffffffff600460506080811015156200084357fe5b0181905550700399e96897690418f785257fffffffffff600460516080811015156200086b57fe5b0181905550700373fc456c53bb779bf0ea9fffffffffff600460526080811015156200089357fe5b018190555070034f9e8e490c48e67e6ab8bfffffffffff60046053608081101515620008bb57fe5b018190555070032cbfd4a7adc790560b3337ffffffffff60046054608081101515620008e357fe5b018190555070030b50570f6e5d2acca94613ffffffffff600460556080811015156200090b57fe5b01819055507002eb40f9f620fda6b56c2861ffffffffff600460566080811015156200093357fe5b01819055507002cc8340ecb0d0f520a6af58ffffffffff600460576080811015156200095b57fe5b01819055507002af09481380a0a35cf1ba02ffffffffff600460586080811015156200098357fe5b0181905550700292c5bdd3b92ec810287b1b3fffffffff60046059608081101515620009ab57fe5b0181905550700277abdcdab07d5a77ac6d6b9fffffffff6004605a608081101515620009d357fe5b018190555070025daf6654b1eaa55fd64df5efffffffff6004605b608081101515620009fb57fe5b0181905550700244c49c648baa98192dce88b7ffffffff6004605c60808110151562000a2357fe5b018190555070022ce03cd5619a311b2471268bffffffff6004605d60808110151562000a4b57fe5b0181905550700215f77c045fbe885654a44a0fffffffff6004605e60808110151562000a7357fe5b01819055507001ffffffffffffffffffffffffffffffff6004605f60808110151562000a9b57fe5b01819055507001eaefdbdaaee7421fc4d3ede5ffffffff6004606060808110151562000ac357fe5b01819055507001d6bd8b2eb257df7e8ca57b09bfffffff6004606160808110151562000aeb57fe5b01819055507001c35fedd14b861eb0443f7f133fffffff6004606260808110151562000b1357fe5b01819055507001b0ce43b322bcde4a56e8ada5afffffff6004606360808110151562000b3b57fe5b018190555070019f0028ec1fff007f5a195a39dfffffff6004606460808110151562000b6357fe5b018190555070018ded91f0e72ee74f49b15ba527ffffff6004606560808110151562000b8b57fe5b018190555070017d8ec7f04136f4e5615fd41a63ffffff6004606660808110151562000bb357fe5b018190555070016ddc6556cdb84bdc8d12d22e6fffffff6004606760808110151562000bdb57fe5b018190555070015ecf52776a1155b5bd8395814f7fffff6004606860808110151562000c0357fe5b018190555070015060c256cb23b3b3cc3754cf40ffffff6004606960808110151562000c2b57fe5b01819055507001428a2f98d728ae223ddab715be3fffff6004606a60808110151562000c5357fe5b018190555070013545598e5c23276ccf0ede68034fffff6004606b60808110151562000c7b57fe5b01819055507001288c4161ce1d6f54b7f61081194fffff6004606c60808110151562000ca357fe5b018190555070011c592761c666aa641d5a01a40f17ffff6004606d60808110151562000ccb57fe5b0181905550700110a688680a7530515f3e6e6cfdcdffff6004606e60808110151562000cf357fe5b01819055507001056f1b5bedf75c6bcb2ce8aed428ffff6004606f60808110151562000d1b57fe5b01819055506ffaadceceeff8a0890f3875f008277fff6004607060808110151562000d4257fe5b01819055506ff05dc6b27edad306388a600f6ba0bfff6004607160808110151562000d6957fe5b01819055506fe67a5a25da41063de1495d5b18cdbfff6004607260808110151562000d9057fe5b01819055506fdcff115b14eedde6fc3aa5353f2e4fff6004607360808110151562000db757fe5b01819055506fd3e7a3924312399f9aae2e0f868f8fff6004607460808110151562000dde57fe5b01819055506fcb2ff529eb71e41582cccd5a1ee26fff6004607560808110151562000e0557fe5b01819055506fc2d415c3db974ab32a51840c0b67edff6004607660808110151562000e2c57fe5b01819055506fbad03e7d883f69ad5b0a186184e06bff6004607760808110151562000e5357fe5b01819055506fb320d03b2c343d4829abd6075f0cc5ff6004607860808110151562000e7a57fe5b01819055506fabc25204e02828d73c6e80bcdb1a95bf6004607960808110151562000ea157fe5b01819055506fa4b16f74ee4bb2040a1ec6c15fbbf2df6004607a60808110151562000ec857fe5b01819055506f9deaf736ac1f569deb1b5ae3f36c130f6004607b60808110151562000eef57fe5b01819055506f976bd9952c7aa957f5937d790ef650376004607c60808110151562000f1657fe5b01819055506f9131271922eaa6064b73a22d0bd4f2bf6004607d60808110151562000f3d57fe5b01819055506f8b380f3558668c46c91c49a2f8e967b96004607e60808110151562000f6457fe5b01819055506f857ddf0117efa215952912839f6473e66004607f60808110151562000f8b57fe5b018190555033608560006101000a81548173ffffffffffffffffffffffffffffffffffffffff021916908373ffffffffffffffffffffffffffffffffffffffff16021790555062001086565b828054600181600116156101000203166002900490600052602060002090601f016020900481019282601f106200101a57805160ff19168380011785556200104b565b828001600101855582156200104b579182015b828111156200104a5782518255916020019190600101906200102d565b5b5090506200105a91906200105e565b5090565b6200108391905b808211156200107f57600081600090555060010162001065565b5090565b90565b612b8a80620010966000396000f3006080604052600436106100f1576000357c0100000000000000000000000000000000000000000000000000000000900463ffffffff168063095ea7b3146101855780630ddeb632146101ea57806318160ddd1461023d57806323b872dd1461026857806329a00e7c146102ed57806349f9b0f71461035257806354fd4d50146103b75780635dc9f5d21461044757806366188463146104b857806370a082311461051d578063715018a6146105745780638da5cb5b1461058b578063a9059cbb146105e2578063b592de3a14610647578063d73dd6231461069a578063dd62ed3e146106ff578063f2fde38b14610776575b6040517f08c379a00000000000000000000000000000000000000000000000000000000081526004018080602001828103825260318152602001807f436f6e74726163742063616e27742072656365697665204554482e205573652081526020017f746865204275792066756e6374696f6e2e00000000000000000000000000000081525060400191505060405180910390fd5b34801561019157600080fd5b506101d0600480360381019080803573ffffffffffffffffffffffffffffffffffffffff169060200190929190803590602001909291905050506107b9565b604051808215151515815260200191505060405180910390f35b3480156101f657600080fd5b506102236004803603810190808035600019169060200190929190803590602001909291905050506108ab565b604051808215151515815260200191505060405180910390f35b34801561024957600080fd5b50610252610bcf565b6040518082815260200191505060405180910390f35b34801561027457600080fd5b506102d3600480360381019080803573ffffffffffffffffffffffffffffffffffffffff169060200190929190803573ffffffffffffffffffffffffffffffffffffffff16906020019092919080359060200190929190505050610bd9565b604051808215151515815260200191505060405180910390f35b3480156102f957600080fd5b5061033c6004803603810190808035906020019092919080359060200190929190803563ffffffff16906020019092919080359060200190929190505050610f94565b6040518082815260200191505060405180910390f35b34801561035e57600080fd5b506103a16004803603810190808035906020019092919080359060200190929190803563ffffffff16906020019092919080359060200190929190505050611095565b6040518082815260200191505060405180910390f35b3480156103c357600080fd5b506103cc6111c9565b6040518080602001828103825283818151815260200191508051906020019080838360005b8381101561040c5780820151818401526020810190506103f1565b50505050905090810190601f1680156104395780820380516001836020036101000a031916815260200191505b509250505060405180910390f35b34801561045357600080fd5b506104b66004803603810190808035600019169060200190929190803563ffffffff169060200190929190803573ffffffffffffffffffffffffffffffffffffffff169060200190929190803563ffffffff169060200190929190505050611267565b005b3480156104c457600080fd5b50610503600480360381019080803573ffffffffffffffffffffffffffffffffffffffff16906020019092919080359060200190929190505050611519565b604051808215151515815260200191505060405180910390f35b34801561052957600080fd5b5061055e600480360381019080803573ffffffffffffffffffffffffffffffffffffffff1690602001909291905050506117ab565b6040518082815260200191505060405180910390f35b34801561058057600080fd5b506105896117f3565b005b34801561059757600080fd5b506105a06118f8565b604051808273ffffffffffffffffffffffffffffffffffffffff1673ffffffffffffffffffffffffffffffffffffffff16815260200191505060405180910390f35b3480156105ee57600080fd5b5061062d600480360381019080803573ffffffffffffffffffffffffffffffffffffffff1690602001909291908035906020019092919050505061191e565b604051808215151515815260200191505060405180910390f35b34801561065357600080fd5b50610680600480360381019080803560001916906020019092919080359060200190929190505050611b3e565b604051808215151515815260200191505060405180910390f35b3480156106a657600080fd5b506106e5600480360381019080803573ffffffffffffffffffffffffffffffffffffffff16906020019092919080359060200190929190505050611eaf565b604051808215151515815260200191505060405180910390f35b34801561070b57600080fd5b50610760600480360381019080803573ffffffffffffffffffffffffffffffffffffffff169060200190929190803573ffffffffffffffffffffffffffffffffffffffff1690602001909291905050506120ab565b6040518082815260200191505060405180910390f35b34801561078257600080fd5b506107b7600480360381019080803573ffffffffffffffffffffffffffffffffffffffff169060200190929190505050612132565b005b600081600260003373ffffffffffffffffffffffffffffffffffffffff1673ffffffffffffffffffffffffffffffffffffffff16815260200190815260200160002060008573ffffffffffffffffffffffffffffffffffffffff1673ffffffffffffffffffffffffffffffffffffffff168152602001908152602001600020819055508273ffffffffffffffffffffffffffffffffffffffff163373ffffffffffffffffffffffffffffffffffffffff167f8c5be1e5ebec7d5bd14f71427d1e84f3dd0314c0f7b2291e5b200ac8c7c3b925846040518082815260200191505060405180910390a36001905092915050565b600080600080600085111515610929576040517f08c379a00000000000000000000000000000000000000000000000000000000081526004018080602001828103825260178152602001807f6578706563746564206e6f6e2d7a65726f2076616c756500000000000000000081525060200191505060405180910390fd5b60876000876000191660001916815260200190815260200160002092508260040160009054906101000a900473ffffffffffffffffffffffffffffffffffffffff1691508173ffffffffffffffffffffffffffffffffffffffff168233308860405180807f7472616e7366657246726f6d00000000000000000000000000000000000000008152506020018573ffffffffffffffffffffffffffffffffffffffff1673ffffffffffffffffffffffffffffffffffffffff1681526020018473ffffffffffffffffffffffffffffffffffffffff1673ffffffffffffffffffffffffffffffffffffffff1681526020018373ffffffffffffffffffffffffffffffffffffffff1673ffffffffffffffffffffffffffffffffffffffff1681526020018281526020019450505050506000604051808303816000865af19150501515610a7257600080fd5b610a9a836003015484600201548560010160009054906101000a900463ffffffff1688610f94565b9050610ab381846003015461219a90919063ffffffff16565b8360030181905550610b0f818460050160003373ffffffffffffffffffffffffffffffffffffffff1673ffffffffffffffffffffffffffffffffffffffff1681526020019081526020016000205461219a90919063ffffffff16565b8360050160003373ffffffffffffffffffffffffffffffffffffffff1673ffffffffffffffffffffffffffffffffffffffff16815260200190815260200160002081905550610b6b85846002015461219a90919063ffffffff16565b83600201819055507f0cd6aaa854013458f4763b250a929db1c553c672ecce4ceec20a9e8abf7f3860868287604051808460001916600019168152602001838152602001828152602001935050505060405180910390a16001935050505092915050565b6000600154905090565b60008060008573ffffffffffffffffffffffffffffffffffffffff1673ffffffffffffffffffffffffffffffffffffffff168152602001908152602001600020548211151515610c2857600080fd5b600260008573ffffffffffffffffffffffffffffffffffffffff1673ffffffffffffffffffffffffffffffffffffffff16815260200190815260200160002060003373ffffffffffffffffffffffffffffffffffffffff1673ffffffffffffffffffffffffffffffffffffffff168152602001908152602001600020548211151515610cb357600080fd5b600073ffffffffffffffffffffffffffffffffffffffff168373ffffffffffffffffffffffffffffffffffffffff1614151515610cef57600080fd5b610d40826000808773ffffffffffffffffffffffffffffffffffffffff1673ffffffffffffffffffffffffffffffffffffffff168152602001908152602001600020546121b690919063ffffffff16565b6000808673ffffffffffffffffffffffffffffffffffffffff1673ffffffffffffffffffffffffffffffffffffffff16815260200190815260200160002081905550610dd3826000808673ffffffffffffffffffffffffffffffffffffffff1673ffffffffffffffffffffffffffffffffffffffff1681526020019081526020016000205461219a90919063ffffffff16565b6000808573ffffffffffffffffffffffffffffffffffffffff1673ffffffffffffffffffffffffffffffffffffffff16815260200190815260200160002081905550610ea482600260008773ffffffffffffffffffffffffffffffffffffffff1673ffffffffffffffffffffffffffffffffffffffff16815260200190815260200160002060003373ffffffffffffffffffffffffffffffffffffffff1673ffffffffffffffffffffffffffffffffffffffff168152602001908152602001600020546121b690919063ffffffff16565b600260008673ffffffffffffffffffffffffffffffffffffffff1673ffffffffffffffffffffffffffffffffffffffff16815260200190815260200160002060003373ffffffffffffffffffffffffffffffffffffffff1673ffffffffffffffffffffffffffffffffffffffff168152602001908152602001600020819055508273ffffffffffffffffffffffffffffffffffffffff168473ffffffffffffffffffffffffffffffffffffffff167fddf252ad1be2c89b69c2b068fc378daa952ba7f163c4a11628f55a4df523b3ef846040518082815260200191505060405180910390a3600190509392505050565b60008060008060008089118015610fab5750600088115b8015610fbd575060008763ffffffff16115b8015610fd85750620f424063ffffffff168763ffffffff1611155b1515610fe357600080fd5b6000861415610ff55760009450611089565b620f424063ffffffff168763ffffffff1614156110385761103188611023888c6121cf90919063ffffffff16565b61220790919063ffffffff16565b9450611089565b61104b888761219a90919063ffffffff16565b915061105c828989620f424061221d565b80945081955050508260ff1661107b858b6121cf90919063ffffffff16565b9060020a9004905088810394505b50505050949350505050565b60008060008060008060008a1180156110ae5750600089115b80156110c0575060008863ffffffff16115b80156110db5750620f424063ffffffff168863ffffffff1611155b80156110e75750898711155b15156110f257600080fd5b600087141561110457600095506111bc565b89871415611114578895506111bc565b620f424063ffffffff168863ffffffff161415611157576111508a611142898c6121cf90919063ffffffff16565b61220790919063ffffffff16565b95506111bc565b868a03925061116b8a84620f42408b61221d565b8095508196505050611186858a6121cf90919063ffffffff16565b91508360ff16899060020a0290506111b9856111ab83856121b690919063ffffffff16565b61220790919063ffffffff16565b95505b5050505050949350505050565b60848054600181600116156101000203166002900480601f01602080910402602001604051908101604052809291908181526020018280546001816001161561010002031660029004801561125f5780601f106112345761010080835404028352916020019161125f565b820191906000526020600020905b81548152906001019060200180831161124257829003601f168201915b505050505081565b600073ffffffffffffffffffffffffffffffffffffffff168273ffffffffffffffffffffffffffffffffffffffff1614151515611332576040517f08c379a000000000000000000000000000000000000000000000000000000000815260040180806020018281038252602f8152602001807f43616e27742073656e6420746f2061646472657373207a65726f202d2061636381526020017f6964656e7469616c206275726e203f000000000000000000000000000000000081525060400191505060405180910390fd5b61133d84848461227a565b6086816000191690555060a060405190810160405280856000191681526020018463ffffffff16815260200160008152602001600081526020018373ffffffffffffffffffffffffffffffffffffffff1681525060876000608654600019166000191681526020019081526020016000206000820151816000019060001916905560208201518160010160006101000a81548163ffffffff021916908363ffffffff160217905550604082015181600201556060820151816003015560808201518160040160006101000a81548173ffffffffffffffffffffffffffffffffffffffff021916908373ffffffffffffffffffffffffffffffffffffffff16021790555090505060008163ffffffff161115611466576114646086548263ffffffff166108ab565b505b7f090d96ffa6a633efe8aa17604a745c59222bc26d6f320ab61baec32306d658b46086548585858560405180866000191660001916815260200185600019166000191681526020018463ffffffff1663ffffffff1681526020018373ffffffffffffffffffffffffffffffffffffffff1673ffffffffffffffffffffffffffffffffffffffff1681526020018263ffffffff1663ffffffff1681526020019550505050505060405180910390a150505050565b600080600260003373ffffffffffffffffffffffffffffffffffffffff1673ffffffffffffffffffffffffffffffffffffffff16815260200190815260200160002060008573ffffffffffffffffffffffffffffffffffffffff1673ffffffffffffffffffffffffffffffffffffffff168152602001908152602001600020549050808310151561162b576000600260003373ffffffffffffffffffffffffffffffffffffffff1673ffffffffffffffffffffffffffffffffffffffff16815260200190815260200160002060008673ffffffffffffffffffffffffffffffffffffffff1673ffffffffffffffffffffffffffffffffffffffff168152602001908152602001600020819055506116bf565b61163e83826121b690919063ffffffff16565b600260003373ffffffffffffffffffffffffffffffffffffffff1673ffffffffffffffffffffffffffffffffffffffff16815260200190815260200160002060008673ffffffffffffffffffffffffffffffffffffffff1673ffffffffffffffffffffffffffffffffffffffff168152602001908152602001600020819055505b8373ffffffffffffffffffffffffffffffffffffffff163373ffffffffffffffffffffffffffffffffffffffff167f8c5be1e5ebec7d5bd14f71427d1e84f3dd0314c0f7b2291e5b200ac8c7c3b925600260003373ffffffffffffffffffffffffffffffffffffffff1673ffffffffffffffffffffffffffffffffffffffff16815260200190815260200160002060008873ffffffffffffffffffffffffffffffffffffffff1673ffffffffffffffffffffffffffffffffffffffff168152602001908152602001600020546040518082815260200191505060405180910390a3600191505092915050565b60008060008373ffffffffffffffffffffffffffffffffffffffff1673ffffffffffffffffffffffffffffffffffffffff168152602001908152602001600020549050919050565b608560009054906101000a900473ffffffffffffffffffffffffffffffffffffffff1673ffffffffffffffffffffffffffffffffffffffff163373ffffffffffffffffffffffffffffffffffffffff1614151561184f57600080fd5b608560009054906101000a900473ffffffffffffffffffffffffffffffffffffffff1673ffffffffffffffffffffffffffffffffffffffff167ff8df31144d9c2f0f6b59d69b8b98abd5459d07f2742c4df920b25aae33c6482060405160405180910390a26000608560006101000a81548173ffffffffffffffffffffffffffffffffffffffff021916908373ffffffffffffffffffffffffffffffffffffffff160217905550565b608560009054906101000a900473ffffffffffffffffffffffffffffffffffffffff1681565b60008060003373ffffffffffffffffffffffffffffffffffffffff1673ffffffffffffffffffffffffffffffffffffffff16815260200190815260200160002054821115151561196d57600080fd5b600073ffffffffffffffffffffffffffffffffffffffff168373ffffffffffffffffffffffffffffffffffffffff16141515156119a957600080fd5b6119fa826000803373ffffffffffffffffffffffffffffffffffffffff1673ffffffffffffffffffffffffffffffffffffffff168152602001908152602001600020546121b690919063ffffffff16565b6000803373ffffffffffffffffffffffffffffffffffffffff1673ffffffffffffffffffffffffffffffffffffffff16815260200190815260200160002081905550611a8d826000808673ffffffffffffffffffffffffffffffffffffffff1673ffffffffffffffffffffffffffffffffffffffff1681526020019081526020016000205461219a90919063ffffffff16565b6000808573ffffffffffffffffffffffffffffffffffffffff1673ffffffffffffffffffffffffffffffffffffffff168152602001908152602001600020819055508273ffffffffffffffffffffffffffffffffffffffff163373ffffffffffffffffffffffffffffffffffffffff167fddf252ad1be2c89b69c2b068fc378daa952ba7f163c4a11628f55a4df523b3ef846040518082815260200191505060405180910390a36001905092915050565b6000806000806087600087600019166000191681526020019081526020016000209250600085118015611bb25750848360050160003373ffffffffffffffffffffffffffffffffffffffff1673ffffffffffffffffffffffffffffffffffffffff1681526020019081526020016000205410155b1515611c26576040517f08c379a000000000000000000000000000000000000000000000000000000000815260040180806020018281038252601b8152602001807f73656c6c20616d6f756e7420657863656465642062616c616e6365000000000081525060200191505060405180910390fd5b611c4e836003015484600201548560010160009054906101000a900463ffffffff1688611095565b91508260040160009054906101000a900473ffffffffffffffffffffffffffffffffffffffff1690508073ffffffffffffffffffffffffffffffffffffffff168130338560405180807f7472616e7366657246726f6d00000000000000000000000000000000000000008152506020018573ffffffffffffffffffffffffffffffffffffffff1673ffffffffffffffffffffffffffffffffffffffff1681526020018473ffffffffffffffffffffffffffffffffffffffff1673ffffffffffffffffffffffffffffffffffffffff1681526020018373ffffffffffffffffffffffffffffffffffffffff1673ffffffffffffffffffffffffffffffffffffffff1681526020018281526020019450505050506000604051808303816000865af19150501515611d7c57600080fd5b611d938284600201546121b690919063ffffffff16565b8360020181905550611def858460050160003373ffffffffffffffffffffffffffffffffffffffff1673ffffffffffffffffffffffffffffffffffffffff168152602001908152602001600020546121b690919063ffffffff16565b8360050160003373ffffffffffffffffffffffffffffffffffffffff1673ffffffffffffffffffffffffffffffffffffffff16815260200190815260200160002081905550611e4b8584600301546121b690919063ffffffff16565b83600301819055507f34a896c7fc8fadcdec95375207701d938b42a5cac922c3c04b7f2a3a04065470868684604051808460001916600019168152602001838152602001828152602001935050505060405180910390a16001935050505092915050565b6000611f4082600260003373ffffffffffffffffffffffffffffffffffffffff1673ffffffffffffffffffffffffffffffffffffffff16815260200190815260200160002060008673ffffffffffffffffffffffffffffffffffffffff1673ffffffffffffffffffffffffffffffffffffffff1681526020019081526020016000205461219a90919063ffffffff16565b600260003373ffffffffffffffffffffffffffffffffffffffff1673ffffffffffffffffffffffffffffffffffffffff16815260200190815260200160002060008573ffffffffffffffffffffffffffffffffffffffff1673ffffffffffffffffffffffffffffffffffffffff168152602001908152602001600020819055508273ffffffffffffffffffffffffffffffffffffffff163373ffffffffffffffffffffffffffffffffffffffff167f8c5be1e5ebec7d5bd14f71427d1e84f3dd0314c0f7b2291e5b200ac8c7c3b925600260003373ffffffffffffffffffffffffffffffffffffffff1673ffffffffffffffffffffffffffffffffffffffff16815260200190815260200160002060008773ffffffffffffffffffffffffffffffffffffffff1673ffffffffffffffffffffffffffffffffffffffff168152602001908152602001600020546040518082815260200191505060405180910390a36001905092915050565b6000600260008473ffffffffffffffffffffffffffffffffffffffff1673ffffffffffffffffffffffffffffffffffffffff16815260200190815260200160002060008373ffffffffffffffffffffffffffffffffffffffff1673ffffffffffffffffffffffffffffffffffffffff16815260200190815260200160002054905092915050565b608560009054906101000a900473ffffffffffffffffffffffffffffffffffffffff1673ffffffffffffffffffffffffffffffffffffffff163373ffffffffffffffffffffffffffffffffffffffff1614151561218e57600080fd5b61219781612385565b50565b600081830190508281101515156121ad57fe5b80905092915050565b60008282111515156121c457fe5b818303905092915050565b6000808314156121e25760009050612201565b81830290508183828115156121f357fe5b041415156121fd57fe5b8090505b92915050565b6000818381151561221457fe5b04905092915050565b6000806000808463ffffffff168663ffffffff1661223b8a8a612481565b0281151561224557fe5b049150612251826125e8565b905061226a81607f0360ff16839060020a9004826126a8565b8193509350505094509492505050565b60008383836040516020018084600019166000191681526020018363ffffffff1663ffffffff167c01000000000000000000000000000000000000000000000000000000000281526004018273ffffffffffffffffffffffffffffffffffffffff1673ffffffffffffffffffffffffffffffffffffffff166c0100000000000000000000000002815260140193505050506040516020818303038152906040526040518082805190602001908083835b60208310151561234f578051825260208201915060208101905060208303925061232a565b6001836020036101000a038019825116818451168082178552505050505050905001915050604051809103902090509392505050565b600073ffffffffffffffffffffffffffffffffffffffff168173ffffffffffffffffffffffffffffffffffffffff16141515156123c157600080fd5b8073ffffffffffffffffffffffffffffffffffffffff16608560009054906101000a900473ffffffffffffffffffffffffffffffffffffffff1673ffffffffffffffffffffffffffffffffffffffff167f8be0079c531659141344cd1fd0a4f28419497f9722a3daafe3b4186f6b6457e060405160405180910390a380608560006101000a81548173ffffffffffffffffffffffffffffffffffffffff021916908373ffffffffffffffffffffffffffffffffffffffff16021790555050565b60008060008060007001ffffffffffffffffffffffffffffffff87111515156124a657fe5b60009350856f8000000000000000000000000000000088028115156124c757fe5b04925070010000000000000000000000000000000083101515612530576125086f800000000000000000000000000000008481151561250257fe5b04612acc565b91508160ff16839060020a900492506f800000000000000000000000000000008260ff160293505b6f800000000000000000000000000000008311156125be57607f90505b60008160ff1611156125bd576f8000000000000000000000000000000083840281151561257657fe5b049250700100000000000000000000000000000000831015156125b1576001839060020a900492506001810360ff1660019060020a02840193505b8060019003905061254d565b5b607a60ff166f02c5c85fdf473de6af278ece600fcbda85029060020a900494505050505092915050565b60008060008060209250607f91505b8160ff166001840160ff16101561264957600282840160ff1681151561261957fe5b0490508460048260ff1660808110151561262f57fe5b015410151561264057809250612644565b8091505b6125f7565b8460048360ff1660808110151561265c57fe5b015410151561266d578193506126a0565b8460048460ff1660808110151561268057fe5b0154101515612691578293506126a0565b6000151561269b57fe5b600093505b505050919050565b6000806000849150600090508360ff168583029060020a900491506f03442c4e6074a82f1797f72ac00000008202810190508360ff168583029060020a900491506f0116b96f757c380fb287fd0e400000008202810190508360ff168583029060020a900491506e45ae5bdd5f0e03eca1ff43900000008202810190508360ff168583029060020a900491506e0defabf91302cd95b9ffda500000008202810190508360ff168583029060020a900491506e02529ca9832b22439efff9b80000008202810190508360ff168583029060020a900491506d54f1cf12bd04e516b6da880000008202810190508360ff168583029060020a900491506d0a9e39e257a09ca2d6db510000008202810190508360ff168583029060020a900491506d012e066e7b839fa050c3090000008202810190508360ff168583029060020a900491506c1e33d7d926c329a1ad1a8000008202810190508360ff168583029060020a900491506c02bee513bdb4a6b19b5f8000008202810190508360ff168583029060020a900491506b3a9316fa79b88eccf2a000008202810190508360ff168583029060020a900491506b048177ebe1fa8123752000008202810190508360ff168583029060020a900491506a5263fe90242dcbacf000008202810190508360ff168583029060020a900491506a057e22099c030d941000008202810190508360ff168583029060020a900491506957e22099c030d94100008202810190508360ff168583029060020a9004915069052b6b545699763100008202810190508360ff168583029060020a90049150684985f67696bf7480008202810190508360ff168583029060020a900491506803dea12ea99e4980008202810190508360ff168583029060020a900491506731880f2214b6e0008202810190508360ff168583029060020a9004915067025bcff56eb360008202810190508360ff168583029060020a90049150661b722e10ab10008202810190508360ff168583029060020a900491506601317c700770008202810190508360ff168583029060020a90049150650cba84aafa008202810190508360ff168583029060020a900491506482573a0a008202810190508360ff168583029060020a900491506405035ad9008202810190508360ff168583029060020a90049150632f881b008202810190508360ff168583029060020a900491506301b293408202810190508360ff168583029060020a90049150620efc408202810190508360ff168583029060020a90049150617fe08202810190508360ff168583029060020a900491506104208202810190508360ff168583029060020a9004915060218202810190508360ff168583029060020a9004915060018202810190508360ff1660019060020a02856f0688589cc0e9505e2f2fee558000000083811515612abf57fe5b0401019250505092915050565b60008060008060009250849150610100821015612b08575b6001821115612b03576001829060020a90049150600183019250612ae4565b612b53565b608090505b60008160ff161115612b52578060ff1660019060020a0282101515612b3f578060ff16829060020a9004915080831792505b60018160ff169060020a90049050612b0d565b5b8293505050509190505600a165627a7a72305820f3636d573e9cbcaca8922fd0e59906ca59b7c134aced0f6aa57810bda2985c7e0029",
  "source": "pragma solidity ^0.4.18;\n\nimport \"zeppelin-solidity/contracts/token/ERC20/StandardToken.sol\";\nimport \"zeppelin-solidity/contracts/ownership/Ownable.sol\";\nimport \"./BancorFormula.sol\";\n\n/**\n * @title TCRFactory\n * @dev Factory and repository for creating universal continuous Token Curated Registries staked with ERC20 tokens\n */\ncontract TCRFactory is StandardToken, BancorFormula, Ownable {\n\n  struct tcr {\n    bytes32 content; // content from UI\n    uint32 reserveRatio; // reserve ratio, represented in ppm, 1-1000000\n    uint256 poolBalance;\n    uint256 totalSharesSupply;\n    address ERC20token; \n    mapping(address => uint) balances;\n  }\n\n  event LogMint(bytes32 hashId, uint256 amountMinted, uint256 totalCost);\n  event LogWithdraw(bytes32 hashId, uint256 amountWithdrawn, uint256 reward);\n  event LogBondingCurve(bytes32 hashId, string logString, uint256 value);\n\n  bytes32 tcrHash;\n  mapping(bytes32 => tcr) tcrs; // maps a hash - the ID of the tcr (see _gethashId)\n\n  /**\n   * @dev default function\n   * gas ~ \n   */\n  function createTCR (bytes32 content, uint32 ratio, address erc20, uint32 startingBalance) public {\n    require(erc20 != address(0), \"Can't send to address zero - accidential burn ?\");\n    tcrHash = _gethashId(content, ratio, erc20);\n    tcrs[tcrHash] = tcr({content:content, reserveRatio:ratio, poolBalance:0, totalSharesSupply:0, ERC20token:erc20});\n    if(startingBalance > 0){\n      buy(tcrHash, startingBalance);\n    }\n    emit TcrCreated(tcrHash, content, ratio, erc20, startingBalance);\n  }\n\n  /**\n   * @dev default function\n   * gas ~ 91645\n   */\n  function() public payable {\n    revert(\"Contract can't receive ETH. Use the Buy function.\");\n  }\n\n  /**\n   * @dev Buy tokens for the TCR with hashId\n   * gas ~ 77825\n   * TODO implement maxAmount that helps prevent miner front-running\n   */\n  function buy(bytes32 hashId, uint256 ercBuyAmount) public returns(bool) {\n    require(ercBuyAmount > 0, \"expected non-zero value\");\n\n    tcr storage buyFromTcr = tcrs[hashId];\n\n    address erc20 = buyFromTcr.ERC20token;\n    require(erc20.call(\"transferFrom\", erc20, msg.sender, address(this), ercBuyAmount));\n\n    uint256 tokensToMint = calculatePurchaseReturn(buyFromTcr.totalSharesSupply, buyFromTcr.poolBalance, buyFromTcr.reserveRatio, ercBuyAmount);\n    buyFromTcr.totalSharesSupply = buyFromTcr.totalSharesSupply.add(tokensToMint);\n    \n    buyFromTcr.balances[msg.sender] = buyFromTcr.balances[msg.sender].add(tokensToMint);\n    buyFromTcr.poolBalance = buyFromTcr.poolBalance.add(ercBuyAmount);\n    emit LogMint(hashId, tokensToMint, ercBuyAmount);\n    return true;\n  }\n\n  /**\n   * @dev Sell tokens\n   * gas ~ \n   * @param sellSharesAmount Amount of tokens to withdraw\n   * TODO implement maxAmount that helps prevent miner front-running\n   */\n  function sell(bytes32 hashId, uint256 sellSharesAmount) public returns(bool) {\n\n    tcr storage sellToTcr = tcrs[hashId];\n    require(sellSharesAmount > 0 && sellToTcr.balances[msg.sender] >= sellSharesAmount, \"sell amount exceded balance\");\n\n    uint256 erc20Amount = calculateSaleReturn(sellToTcr.totalSharesSupply, sellToTcr.poolBalance, sellToTcr.reserveRatio, sellSharesAmount);\n    address erc20 = sellToTcr.ERC20token;\n    require(erc20.call(\"transferFrom\", erc20, address(this), msg.sender, erc20Amount));\n\n    sellToTcr.poolBalance = sellToTcr.poolBalance.sub(erc20Amount);\n    sellToTcr.balances[msg.sender] = sellToTcr.balances[msg.sender].sub(sellSharesAmount);\n    sellToTcr.totalSharesSupply = sellToTcr.totalSharesSupply.sub(sellSharesAmount);\n    emit LogWithdraw(hashId, sellSharesAmount, erc20Amount);\n    return true;\n  }\n\n  /**\n    @dev Create a hash from content, reserveRatio and the ERC20 token address\n  */\n  function _gethashId(bytes32 hashId, uint32 reserveRatio, address ERC20token) internal pure returns (bytes32 hash) {\n    return keccak256(abi.encodePacked(hashId, reserveRatio, ERC20token));\n  }\n\n  event LogMint(uint256 amountMinted, uint256 totalCost);\n  event LogWithdraw(uint256 amountWithdrawn, uint256 reward);\n  event LogBondingCurve(string logString, uint256 value);\n  event TcrCreated(bytes32 hashId, bytes32 content, uint32 ratio, address erc20, uint32 startingBalance);\n}\n\n",
  "sourcePath": "/Users/dougking/git/EthSfHackathon/tcr/tcr_factory/contracts/TcrFactory.sol",
  "compiler": {
    "name": "solc",
    "version": "0.4.24+commit.e67f0147.Emscripten.clang"
  },
  "schemaVersion": "2.0.1",
  "updatedAt": "2018-10-07T05:34:25.440Z"
}